:10000000FEC200002DC300002BC3000029C3000066
:1000100027C3000025C3000023C3000021C3000044
:100020001FC300001DC300001BC3000019C3000054
:1000300017C3000015C3000013C3000011C3000064
:100040000FC300000DC300000BC3000009C3000074
:1000500007C3000005C3000003C300000C948138EF
:10006000FFC200000C94BC3B0C94F23BF9C20000B0
:10007000F7C20000F5C20000F3C20000F1C20000A8
:10008000EFC20000EDC20000EBC20000E9C20000B8
:10009000E7C20000E5C20000E3C20000E1C20000C8
:1000A000DFC20000DDC20000DBC20000D9C20000D8
:1000B000D7C20000D5C20000D3C20000D1C20000E8
:1000C000CFC20000CDC20000CBC20000C9C20000F8
:1000D000C7C20000C5C20000C3C20000C1C2000008
:1000E000BFC20000280C2B0C370C3A0C340C600CEF
:1000F000600C600C600C600C600C480C3D0C600CDB
:10010000570C540CA439A73996399A39A039DE39DD
:10011000AB39AF39B539B939BD39C339C739CB393D
:10012000DE39D139D539D939746578742F706C615D
:10013000696E00436F6E74656E742D547970653A04
:1001400020005365727665723A2043522D3130306B
:1001500000485454502F312E3120323030204F4B34
:10016000002F732F7365727665722E6372002F7382
:100170002F69702E6372002F732F6D61632E63726F
:1001800000702F6572726F722E74626800702F7328
:10019000657474696E67732E74626800702F696E7F
:1001A000666F2E746268004C6F636174696F6E3A9B
:1001B0002000436F6E6E656374696F6E3A20636CE6
:1001C0006F7365005365727665723A2043522D3124
:1001D000303000485454502F312E312033303120EC
:1001E0004D6F766564205065726D616E656E746CDE
:1001F00079002F6C6F672F6765656B2E786C6700D1
:100200004241534152494C4900436F6E6E656374DD
:10021000696F6E3A20636C6F736500436F6E74652F
:100220006E742D547970653A20746578742F706CF3
:1002300061696E005365727665723A2043522D31C2
:10024000303000485454502F312E3120323030207D
:100250004F4B002F732F64657363726970742E6344
:1002600072002F732F7365727665722E6372002F82
:10027000732F69702E637200436F6E6E65637469CD
:100280006F6E3A20636C6F736500536572766572AA
:100290003A2043522D31303000485454502F312EE3
:1002A0003120343034204E6F7420466F756E6400F8
:1002B000436F6E6E656374696F6E3A20636C6F7323
:1002C0006500436F6E74656E742D4C656E6774685F
:1002D0003A00746578742F706C61696E00696D61A5
:1002E00067652F782D69636F6E00666F6E742F6F70
:1002F00070656E7479706500746578742F637373BC
:10030000006170706C69636174696F6E2F6A6176E9
:100310006173637269707400696D6167652F706ED7
:100320006700696D6167652F6A706567007465783D
:10033000742F68746D6C00436F6E74656E742D5409
:100340007970653A20005365727665723A2043529F
:100350002D31303000485454502F312E312032305E
:1003600030204F4B002F6C6F672F6765656B2E78C1
:100370006C67002F6C6F672F6765656B2E786C67F5
:10038000002F6C6F672F6261636B75702E636C67F3
:10039000002F6C6F672F6765656B2E786C67003E6A
:1003A0003E204D61696E20506167650053442043D3
:1003B000525F53445F554E4156414C4941424C4572
:1003C0000053442043525F53445F57524F4E4700FF
:1003D0002F732F7365727665722E6372002F702FE4
:1003E0006170692F67536572762E6373002F732FC8
:1003F00064657363726970742E6372002F702F616D
:1004000070692F674465732E6373002F732F6964BF
:100410002E6372002F702F6170692F6749442E631D
:1004200073002F702F6170692F674D41432E6373E6
:10043000002F702F6170692F674D41432E63730049
:100440002F702F6170692F6749502E6373002F70D2
:100450002F617069002F702F6170690023002F7366
:100460002F73657474696E67732E637200446863DA
:100470007000534420556E617661696C61626C65F1
:100480000046696C65204E6F7420466F756E64007F
:1004900053657276657200526561647900426561E8
:1004A0007400446F776E00557000435220426F61B4
:1004B0007264207C0045746865726E6574202E2E0F
:1004C0002E005374617274696E67202E2E2E007C8C
:1004D0003C3E5E2B3D3F2F5B5D3B2C2A225C0000A7
:1004E000000A0B02090C0D0E0807030401000000AE
:1004F00000000000000000000000000000000000FC
:1005000000000000000000000000001211100000B8
:1005100000000000000000000000000000000000DB
:1005200000000000000102102020080810204010E8
:1005300020408002010201080402010102040810A7
:1005400020408080402010080402018004020180C5
:1005500040201008040201080402010102040810EE
:100560002040800102040810204080050505050791
:100570000508080808020202020A0A08080404041E
:10058000040101010101010101030303030303034A
:1005900003040707070C0C0C0C0C0C0C0C020202D9
:1005A0000206060606060606060B0B0B0B0B0B0BCC
:1005B0000B00002200250028002B002E0031003403
:1005C0000002010000050108010B010000210024C8
:1005D0000027002A002D0030003300010100000434
:1005E0000107010A01000304890C230D1A12F316F6
:1005F000C118451A9C1C36272D2A243CCF3C1124B7
:100600001FBECFEFD1E2DEBFCDBF00E00CBF13E0D5
:10061000A0E0B2E0E8E0FCE800E00BBF02C0079019
:100620000D92A634B107D9F727E0A6E4B3E001C0E4
:100630001D92A933B207E1F715E0CEEFD5E000E057
:1006400006C022970109FE010BBF0E94153FC63E5E
:10065000D10780E00807A9F70E94A53E0C94024646
:10066000CFCCCF93DF93EC01FA01408151810E94FE
:100670009326CE01DF91CF910895FB0160817181B6
:100680000C942C27CF93DF93EB01E881F981048050
:10069000F581E02DCE011995892B41F0E881F98192
:1006A0000680F781E02DCE011995EFCFDF91CF9134
:1006B00008950F931F93CF93DF931F92CDB7DEB7AB
:1006C0008B0163ED71E0C80149830E944A3D64ECEF
:1006D00071E0C8010E944A3D62EB71E0C8010E94CE
:1006E0004A3D67EA71E0C8010E941C3D49814130E2
:1006F00049F028F0423059F461E871E005C06CE936
:1007000071E002C06DE871E0C8010E944A3DC80175
:100710000E94473DC8010F90DF91CF911F910F912B
:100720000C94473DEF92FF920F931F93CF93DF936B
:10073000CDB7DEB766970FB6F894DEBF0FBECDBF5C
:100740007E0181E1E80EF11C60EF73E0C7010E94B9
:10075000CD168E891F928F938D891F928F938C89CE
:100760001F928F938B891F928F9380E192E09F93CA
:100770008F938E010F5F1F4F1F930F930E9437437C
:10078000C8010E94000C80E1F80111928A95E9F7F6
:1007900086E0F70111928A95E9F70FB6F894DEBF6B
:1007A0000FBECDBF66960FB6F894DEBF0FBECDBFAD
:1007B000DF91CF911F910F91FF90EF90089561E02D
:1007C0008AE30E94DF3960E08AE30C94183ACF9301
:1007D000DF93EB0161E571E0CE010E944A3D62E4E6
:1007E00071E0CE010E944A3D63E371E0CE010E94B8
:1007F0001C3D68E271E0CE010E944A3DCE01DF91CE
:10080000CF910C94473D0F9300E020E040E060E082
:100810008BE593E00E94A83C60E570E085E593E0FD
:100820000F910C942219EF92FF920F931F93CF9385
:10083000DF93CDB7DEB7CC55D1090FB6F894DEBF44
:100840000FBECDBF6D961FAE1EAE6D9767E771E010
:10085000CE0101960E949C3E21E0AE014F5F5F4FAA
:1008600062E374E0CE01C796FCDECE0101960E94E1
:10087000163E10E0CE01C7960E94D023892BF1F0DE
:10088000CE01C7960E9431236C968FAF6C97CE0134
:10089000C7960E9431236D968FAF6D9740E150E06F
:1008A00060E070E0CE01855A9F4F0E948941E12FA0
:1008B000F0E0E95BFC4F60831F5FDCCFCE01C796A1
:1008C0000E94FD236B961DAE1EAE1FAE6B976EE6AB
:1008D00071E0CE0101960E949C3E21E0AE014F5F87
:1008E0005F4F62E374E0CE014C96BBDECE01019611
:1008F0000E94163EE12CF12CCE014C960E94D02392
:10090000892B61F1CE014C960E9431230F2D10E00E
:10091000E8E5F0E0EC0FFD1FE00FF11F80838E3261
:1009200009F47AC0CE014C960E94D023892BA1F401
:10093000E8E5F0E0EC0FFD1FE00FF11F1182CE01A2
:10094000885A9F4F0E94BA42EE2DF0E0EF5AFC4FBA
:100950008083E394FF24FA94F394CECFCE014C9697
:100960000E94FD2361E671E0CE018E5A9F4F0E94E6
:100970009C3E21E0AE014E5A5F4F62E374E0CE012F
:1009800001966FDECE018E5A9F4F0E94163EE12CDB
:10099000F12CCE0101960E94D023892B59F1CE0172
:1009A00001960E9431230F2D10E0E8E5F0E0EC0FF6
:1009B000FD1FE00FF11F80838E3281F1CE01019681
:1009C0000E94D023892BA1F4E8E5F0E0EC0FFD1F95
:1009D000E00FF11F1182CE01885A9F4F0E94BA4248
:1009E000EE2DF0E0E35BFC4F8083E394FF24FA9468
:1009F000F394CFCFCE0101960E94FD23C45ADF4F5E
:100A00000FB6F894DEBF0FBECDBFDF91CF911F911F
:100A10000F91FF90EF90089510828ACF1082D4CF6B
:100A20000F931F93CF93DF93CDB7DEB7A1970FB688
:100A3000F894DEBF0FBECDBF62EF71E0CE014C96E1
:100A40000E949C3E26E1AE01445E5F4F62E374E08B
:100A5000CE01019606DECE014C960E94163ECE01D6
:100A600001960E940F24882391F161E08FE10E949A
:100A7000183A61E08EE10E94183A00E010E080E947
:100A800096E00E944D3A1816190674F461E08EE162
:100A90000E94183A80E996E00E94663A682FCE01DB
:100AA00001960E94E122E9CF60E08EE10E94183AAF
:100AB0000F5F1F4F093283E218070CF3CE01019636
:100AC0000E94FD2360E08FE10E94183A02C08BE093
:100AD000ABD6A1960FB6F894DEBF0FBECDBFDF91A7
:100AE000CF911F910F9108950F931F93CF93DF9391
:100AF000CDB7DEB7EC970FB6F894DEBF0FBECDBF13
:100B00008A01CE0101960E949C3E21E0AE014F5F1A
:100B10005F4F62E374E0CE014C96A3DDCE010196F7
:100B20000E94163ECE014C960E940F248823A9F104
:100B3000B801CE0101960E949C3EBE016F5F7F4FBF
:100B400082E394E09ADDCE0101960E94163EB80140
:100B5000CE01C7960E949C3E22E1AE01495C5F4FE8
:100B600062E374E0CE0101967CDDCE01C7960E945F
:100B7000163ECE014C960E94D023892B51F0CE0117
:100B80004C960E943123682FCE0101960E94E122EB
:100B9000F0CFCE0101960E94FD23CE014C960E941B
:100BA000FD23EC960FB6F894DEBF0FBECDBFDF91EC
:100BB000CF911F910F910895CF92DF92EF92FF9204
:100BC0000F931F93CF93DF93CDB7DEB7CD55D109E8
:100BD0000FB6F894DEBF0FBECDBF6C0161E08AE0B6
:100BE0000E94DF3961E08AE00E94183A64E082E303
:100BF00094E00E948025882309F42BC16EE574E0FF
:100C0000CE0101960E949C3E21E0AE014F5F5F4FF6
:100C100062E374E0CE01C79624DDCE0101960E9406
:100C2000163ECE01C7960E940F24882309F409C1FD
:100C3000C601F9DDCE01C7960E94FD2380915103C4
:100C400081111AC080915203811116C08FE0ECD53A
:100C500010EAE12E1FE0F12E00E010E020E63AEE6F
:100C600040E050E067E473E080EF93E00E94E1141D
:100C7000892BD9F48EE0F4C061E573E0CE010196D2
:100C80000E94B43CAE014F5F5F4F67E473E080EFBA
:100C900093E00E94901681E0809346034CE554E077
:100CA00060E170E082E090E097D585E593E00E94F6
:100CB000E2186CE271E080E090E00E94FA3881E195
:100CC000B3D565E574E0CE0101960E949C3E698132
:100CD0007A8182E394E00E942227CE0101960E944D
:100CE000163E6EE474E0CE0101960E949C3E69813E
:100CF0007A8182E394E00E941827CE0101960E9437
:100D0000163E60E474E0CE0101960E949C3EBE0156
:100D10006F5F7F4F82E394E0B0DCCE0101960E94CA
:100D2000163E22E140E352E062E374E0CE014C96CD
:100D30000E94932660EF73E0CE01885A9F4F0E9475
:100D4000CD1628E5E22EF12CEC0EFD1E82E0E80E19
:100D5000F11C00E010E0F70161917F014AE050E0F2
:100D6000CE014C960E94BD3D0330110529F06EE284
:100D7000CE014C960E94403D0F5F1F4F043011057D
:100D800051F7CE014C960E94FD2361E374E0CE0141
:100D900001960E949C3EBE016F5F7F4F82E394E00C
:100DA0006CDCCE0101960E94163E62E274E0CE0138
:100DB0008E5A9F4F0E949C3E22E1AE014E5A5F4FD9
:100DC00062E374E0CE0101964CDCCE018E5A9F4F57
:100DD0000E94163E97E4E92E93E0F92E00E010E021
:100DE000F70161917F0140E150E0CE0101960E9440
:100DF000BD3D0630110529F06AE3CE0101960E943F
:100E0000403D0F5F1F4F0730110551F7CE0101968E
:100E10000E94FD2344E154E06BE074E0C60164DE0F
:100E20004CEF53E06DEE73E0C6015EDE4DED53E036
:100E300060ED73E0C60158DE82E0F6D4C60172DCD4
:100E400010C061EC73E080E996E00E941C3D8CE0EC
:100E500007C06CEA73E080E996E00E941C3D8BE0DD
:100E6000E3D4C35ADF4F0FB6F894DEBF0FBECDBF39
:100E7000DF91CF911F910F91FF90EF90DF90CF9076
:100E800008950F931F93CF93DF93CDB7DEB7EC9701
:100E90000FB6F894DEBF0FBECDBF8A01CE0101961A
:100EA0000E949C3E21E0AE014F5F5F4F62E374E021
:100EB000CE014C96D6DBCE0101960E94163ECE01A5
:100EC0004C960E940F24882331F1B801CE01C796B9
:100ED0000E949C3E26E1AE01495C5F4F62E374E0F4
:100EE000CE010196BEDBCE01C7960E94163ECE0112
:100EF0004C960E94D023892B51F0CE014C960E9433
:100F00003123682FCE0101960E94E122F0CFCE015D
:100F100001960E94FD23CE014C960E94FD23EC9683
:100F20000FB6F894DEBF0FBECDBFDF91CF911F91FA
:100F30000F9108952F923F924F925F926F927F92FE
:100F40008F929F92AF92BF92CF92DF92EF92FF92D9
:100F50000F931F93CF93DF93CDB7DEB7C151D1402D
:100F60000FB6F894DEBF0FBECDBF8C018091460353
:100F7000882309F4AAC365E573E0CE0188509F4F2A
:100F80000E94DD19CE0188509F4F0E9426178823AA
:100F900009F46AC319821A821B821C82FE013596EB
:100FA00080E6DF011D928A95E9F7CE0188509F4FB8
:100FB0000E94521704970CF457C340E157E260E0D7
:100FC00070E0CE0188509F4F0E94D33D80E290E2B6
:100FD000A0E2B0E0C55FDE4F88839983AA83BB831C
:100FE000CB50D140CE0188509F4F0E945A17C55F09
:100FF000DE4F8883CB50D140CE0188509F4F0E9456
:101000005A17C45FDE4F8883CC50D140CE01885040
:101010009F4F0E945A17C35FDE4F8883CD50D14047
:101020006EE372E0CE01855F9E4F0E941043222442
:101030002394892B09F0212C62E472E0CE01855FB4
:101040009E4F0E94104333243394892B09F0312C96
:10105000C55FDE4F188219821A821B82CB50D140A5
:10106000211002C0332061F0CE0188509F4F0E94B2
:101070005A17332029F0CE0188509F4F0E945A17EB
:101080005E01B5E6AB0EB11C86E4F501282F119286
:101090002A95E9F7311004C0D5011D928A95E9F728
:1010A000FE0131962F017F01CE0184559F4FC15F14
:1010B000DE4F99838883CF50D1406201CE18DF087C
:1010C000CE0188509F4F0E945A17D2018D932D0157
:1010D000803241F5332009F1E4C23501CE01885058
:1010E0009F4F0E945217892B39F0CE0188509F4F95
:1010F0000E945A17F3018083FFEF6F1A7F0AC15FC6
:10110000DE4F88819981CF50D1406816790631F73A
:10111000C555DF4F1882CB5AD040BE0168507F4F73
:10112000C801B0DACE0188509F4F0E945217892B18
:1011300021F6F701EC0DFD1D1082222009F4D5C126
:1011400089818F3271F493E0C916D10450F48FE98C
:1011500093E02ED384E6D7011D928A95E9F740E00B
:10116000B8C1960143E050E066E472E0C701E6D200
:10117000019609F4ADC15E01EDEDAE0EB11C84E146
:10118000D5011D928A95E9F7960140E050E0B5013E
:10119000C701FED2CA0CDB1CF60110826AE472E0C1
:1011A000C5010E941043892B41F4CE0188509F4F06
:1011B0000E946718C80103DB91C16DE572E0C501AB
:1011C0000E941043892B09F064C061E08EE10E9407
:1011D000183ABE0168507F4FC801F9DA61E973E03F
:1011E000CE018B5F9E4F0E949C3E21E0AE014B5F83
:1011F0005E4F62E374E0CE0185559F4F32DACE0137
:101200008B5F9E4F0E94163ECE0185559F4F0E94D8
:101210000F24882391F0CE0185559F4F0E940F2403
:10122000882309F440C2CE0185559F4F0E94D023E8
:10123000181619060CF43DC236C2CE0188509F4FD5
:101240000E94473DCE0188509F4F0E94473DCE01EE
:1012500088509F4F0E94671841E853E063E773E0AE
:10126000C8010FDE65E673E0CE018B5F9E4F0E94E2
:101270009C3EBE016B5F7E4F82E394E0FED9CE01BF
:101280008B5F9E4F0E94163E60E08EE10E94183AEE
:1012900025C1F60133978081CB5FDE4F8883C5502F
:1012A000D14031968081CA5FDE4F8883C650D140DD
:1012B00031968081C95FDE4F8883C750D140C85FB7
:1012C000DE4F1882C850D14084E6D7011D928A951E
:1012D000E9F721E0A50162E374E0CE0185559F4F57
:1012E0000E949326CE0185559F4F0E940F2488238C
:1012F00009F4C5C0C50184D265E573E0CE0188500C
:101300009F4F0E944A3D66E473E0CE0188509F4F94
:101310000E944A3D67E373E0CE0188509F4F0E94D0
:101320001C3D66E972E0CE018B5F9E4F0E94104328
:10133000892B19F46DE273E05CC06EE672E0CE01B9
:101340008B5F9E4F0E941043892B19F462E273E079
:1013500050C062E772E0CE018B5F9E4F0E94104347
:10136000892B19F468E173E044C066E772E0CE01AE
:101370008B5F9E4F0E941043892B19F461E073E04C
:1013800038C06AE772E0CE018B5F9E4F0E94104327
:10139000892B19F468EF72E02CC06EE772E0CE0181
:1013A0008B5F9E4F0E941043892B19F46AEE72E006
:1013B00020C062E872E0CE018B5F9E4F0E94104316
:1013C000892B19F46DED72E014C066E872E0CE016D
:1013D0008B5F9E4F0E941043892B49F06AE372E0B5
:1013E000CE018B5F9E4F0E941043892B39F462ED32
:1013F00072E0CE0188509F4F0E944A3DCB5FDE4F86
:10140000188219821A82C550D14062EC72E0CE0176
:1014100088509F4F0E941C3DCE0185559F4F0E94D2
:10142000C023AB01BC012AE030E0CE0188509F4FC1
:101430000E94C33D60EB72E0CE0188509F4F0E9436
:101440004A3DCE0188509F4F0E94473DCE018555B1
:101450009F4F0E94D023892B61F0CE0185559F4F6D
:101460000E943123682FCE0188509F4F0E94101791
:10147000EDCFCE0185559F4F0E94FD232FC066E919
:1014800072E0CE018B5F9E4F0E941043892B01F1C9
:1014900069E972E0CE0188509F4F0E944A3D6AE898
:1014A00072E0CE0188509F4F0E944A3D68E772E08B
:1014B000CE0188509F4F0E944A3DCE0188509F4FD9
:1014C0000E94473DCE0188509F4F0E94473D06C075
:1014D00042E0BE0168507F4FC801EBD868EC70E075
:1014E00080E090E00E94FA38B8C0332009F4BAC016
:1014F000512CC12CD12C3E01BBEA6B0E711CE2E3D6
:101500004E2EF501EC0DFD1D4081C6010296F30142
:10151000242D11922A95E9F7A4E3CA0ED11CF301F8
:101520009C012F5F3F4F8C159D0588F4D501A80FB6
:10153000B91F5C90B6E25B1651F0552041F08BE28A
:10154000581202C070E2572E5192C901E9CF6901C9
:10155000F301E20FF31F10826AE872E0C701CF5E69
:10156000DE4F4883C151D1400E941043CF5EDE4F11
:101570004881C151D140892B09F045C0493671F0ED
:10158000433739F0443671F453E5852E52E0952EF9
:1015900009C062E6862E62E0962E04C04FE6842ED5
:1015A00042E0942EB401CE0183529F4F0E949C3E94
:1015B000BE0163527F4F82E394E05FD8CE01835235
:1015C0009F4F0E94163EB401CE018B5F9E4F0E943A
:1015D0009C3E22E1AE014B5F5E4F62E374E0CE01C0
:1015E00083529F4F3ED8CE018B5F9E4F0E94163E86
:1015F000B301CE0183529F4F0E943F3DCE018352E3
:101600009F4F0E94FD2351107CCF63E472E0CE0116
:1016100088509F4F0E944A3D64E372E0CE0188509B
:101620009F4F0E944A3D6BE172E0CE0188509F4F70
:101630000E944A3D69E072E0CE0188509F4F0E94AF
:101640004A3DCE0188509F4F0E94473D60E072E0C6
:10165000CE0188509F4F0E944A3DCE0188509F4F37
:101660000E946718C801ABD8C8015CD82EC0CE0153
:1016700088509F4F0E945A170A9799F471102DCDE8
:1016800077247394CE0188509F4F0E945217892B64
:1016900009F443CDCE0188509F4F0E945A178D30D8
:1016A00031F3712CEFCFCE0185559F4F0E94FD2362
:1016B000C9CDCE0185559F4F0E943123682FCE01A1
:1016C00088509F4F0E941017A6CDCF5EDE4F0FB6F9
:1016D000F894DEBF0FBECDBFDF91CF911F910F9168
:1016E000FF90EF90DF90CF90BF90AF909F908F9042
:1016F0007F906F905F904F903F902F9008959093C0
:1017000062038093610320E042E060E10E94D637EB
:1017100080916103909162030E94B93740E060E0DC
:1017200080916103909162030E94BE376AEA74E07F
:1017300080916103909162030C941C3D0F931F9361
:10174000CF93DF93E0E0F0E02E173F077CF0DB0162
:10175000EC01CE0FDF1F8D01061B170B04171507B9
:1017600044F409911D910117B1F305C08FEF9FEF6C
:101770000AC0CF0108C0DF01A40FB51F2A173B071D
:10178000ACF33196E1CFDF91CF911F910F91089586
:10179000DC01A40FB51FFB01461B570BCA018E0FBE
:1017A0009F1F821793071CF48D918193F7CF0895A3
:1017B000CF93DF93EC0141E060E080916103909171
:1017C00062030E94BE37BE01809161039091620363
:1017D000DF91CF910C941C3DCF93DF93EA016150D0
:1017E000482F80916103909162030E94BE37BE0131
:1017F0008091610390916203DF91CF910C941C3D25
:10180000CF93DF93EC0141E060E080916103909120
:1018100062030E94BE37BE01809161039091620312
:10182000DF91CF910C943F3DCF93C82F40E06BE008
:1018300080916103909162030E94BE378C2F90E0EB
:1018400080319105E8F5FC01EE58FF4F0C94FE3E07
:1018500067EA74E002C062EA74E0809161039091EB
:101860006203CF910C941C3D6DE974E0F6CF67E9FB
:1018700074E0F3CF60E974E0F0CF6AE972E0809140
:101880006103909162030E943F3D81E894E00AC0A9
:101890006AE972E080916103909162030E943F3D8A
:1018A00082E794E0CF9184CF6DE674E0D6CF6DE906
:1018B00072E08091610390916203CF910C943F3D5F
:1018C000CF91089561E08FE10E94DF3961E08EE100
:1018D0000E94DF3984E693E012DF82EC94E068DF57
:1018E00026E040E855E260E070E080E996E00E9482
:1018F0005C3B60E086E30E94DF3985EB94E058DFD3
:1019000083E693E059C983E693E014DB83E693E032
:1019100087C8CF92EF920F9300E020E040E060E0B4
:101920008CE793E00E94A83C89E0C82E98E0E92E5D
:1019300007E026E045E063E084E693E00E945C383F
:101940000F91EF90CF900895CF93CFB7F8948091F7
:101950008503811127C0E0EAF5E08491EAE5F5E02E
:101960009491E82FF0E0EE0FFF1FE553FA4FA59199
:10197000B4918C91892321F461E085E30E94183AA7
:1019800061E085E30E94DF398CB580618CBD8CB548
:1019900080648CBD61E084E30E94DF3961E083E311
:1019A0000E94DF39809185038F5F80938503CFBFCD
:1019B000CF9108950E9624E1FC0111922A95E9F742
:1019C0000895CF93DF93EC01625F7F4F0E94B43C98
:1019D000CE01DF91CF910895CF93DF93EC016E5E3E
:1019E0007F4F0E94B43CCE01DF91CF910895CF93F9
:1019F000DF93EC016A5E7F4F0E94B43CCE01DF9121
:101A0000CF910895CF93DF93EC01625E7F4F0E94E8
:101A1000B43CCE01DF91CF91089580E3FB01808338
:101A20003296842F82958F7090E1899F40191124FE
:101A30004A3014F4405D01C0495C4293882311F0A0
:101A4000482FEFCF08950F9300E020E040E060E0E2
:101A500086E893E00E94A83C0F9108956F927F92D0
:101A60008F929F92AF92BF92CF92DF92EF92FF92AE
:101A70000F931F93CF93DF93CDB7DEB7AC970FB61D
:101A8000F894DEBF0FBECDBF7C01862EB42EA52EEE
:101A900020E2922ECE0101966C01FC01292D1192BB
:101AA0002A95E9F70FEF2FEF4FEF6FEF86960E9421
:101AB000A83C82E393E09AA389A389A59AA5ABA544
:101AC000BCA58BA39CA3ADA3BEA387010D5B1F4F39
:101AD00043E450E0BE016F5D7F4FC8010E94AB1A26
:101AE000019609F4BCC081E089838A8386E0782E60
:101AF0007B821C82F70164817581868197810E94B7
:101B0000043F6D837E838F839887A986BA8680E899
:101B100090E09C878B874CE150E0B601C8010E94A1
:101B2000B51AF601292D11922A95E9F7570188E097
:101B3000A80EB11CF501D60101900D927A94E1F73F
:101B400040E150E0B601C8010E94B51AF6011192B9
:101B50009A94E9F796E0692E712C40E250E0B601C4
:101B6000C8010E94B51AF1E06F1A7108B1F783E657
:101B7000898392E89A8393E59B838C8385E38D83A5
:101B800081E08E838F829DE3988797E099878A878B
:101B900086E0F501DE011B9601900D928A95E1F732
:101BA0008CE0898B8A8B63EA72E0CE0143960E94B7
:101BB0001943F7014385BE01675E7F4FC7012DDFE3
:101BC000F7014485BE01655E7F4FC70126DFF7013F
:101BD0004585BE01635E7F4FC7011FDF4EE150E0C8
:101BE000B601C8010E94B51AF3E08F121EC082E34D
:101BF000898384E08A83F70196859B8397859C83FC
:101C000090899D8391899E8396E39F838887828DA7
:101C10008987838D8A87848D8B87858D8C874CE01F
:101C200050E0B601C8010E94B51A87E3898386E0B7
:101C30008A8391E09B8393E09C838D838FE08E83E6
:101C40008AE38F838BE388878FEF898749E050E0B1
:101C5000B601C8010E94B51AC8010E94B21AAC961A
:101C60000FB6F894DEBF0FBECDBFDF91CF911F91AD
:101C70000F91FF90EF90DF90CF90BF90AF909F902B
:101C80008F907F906F9008952F923F924F925F9226
:101C90006F927F928F929F92AF92BF92CF92DF927C
:101CA000EF92FF920F931F93CF93DF93CDB7DEB7E1
:101CB000E3970FB6F894DEBF0FBECDBF7C012A01BB
:101CC0003B0169010E94CB384B015C0187010D5B30
:101CD0001F4FC8010E944F1B1816190694F00E944E
:101CE000CB38681979098A099B0946165706680690
:101CF0007906F0F062E370E080E090E00E94FA384C
:101D0000E8CF42E250E0BE016F5F7F4FC8010E9402
:101D1000F01A8981823031F4F801848995898334FD
:101D2000910541F019A6C8010E94851A89A566C1CE
:101D30008FEF64C16D817E818F8198850E94043F01
:101D40004B015C01F601608371838283938346E0DB
:101D500050E0B701685F7F4FCE014D960E94EF4281
:101D6000892B99F4F70180819181A281B381881632
:101D70009906AA06BB0648F084819581A681B781A1
:101D800088159905AA05BB0528F4C8010E94851A83
:101D900080E034C189899A89AB89BC89F70186873B
:101DA0009787A08BB18B3EECC32ED12CC8010E942B
:101DB000C81AF1E0CF1AD108C9F719A6C70182964F
:101DC0009BA78AA7F701B696FDA7ECA708969FA741
:101DD0008EA73C976F01899699AB88AB3897FBAB80
:101DE000EAAB5701F6E1AF0EB11C47018EE1880E58
:101DF000911CC8010E946B1A181619060CF093CF9B
:101E0000C8010E94C81A8333910509F4CDC0F4F4C7
:101E100081309105B9F11CF4892B59F3DFC083306F
:101E20009105C1F1069709F0D9C0C8010E94C81AEE
:101E30003C0144E050E0B401C8010E94F01A212C9A
:101E4000312C7724F4E06F1A71083FC08A33910572
:101E500009F47EC03CF48533910561F0C69709F41E
:101E60003FC0BCC08B33910509F488C08F3F9105FA
:101E700001F2B4C0C8010E94C81AC8010E94C81A61
:101E800089A7B7CFC8010E94C81A44E050E06AA9E8
:101E90007BA93AC0C8010E94C81A3C0144E050E046
:101EA000B501C8010E94F01A212C312C772494E04E
:101EB000691A7108261437040CF09BCFC8010E94E0
:101EC000C81AEFEF2E1A3E0AF5CF261437040CF08D
:101ED00090CFC8010E94C81A8FEF281A380AF5CF90
:101EE000C8010E94C81A782EF701828D811110C096
:101EF000838D81110DC0848D81110AC0858D811162
:101F000007C044E050E0B601C8010E94F01A71CF4A
:101F1000E8A9F9A92080318042805380B601CE0122
:101F200083960E94B43C8DA19EA1AFA1B8A5821555
:101F30009305A405B50529F3212C312C721409F45D
:101F400058CFC8010E94C81AFFEF2F1A3F0AF6CFD8
:101F5000C8010E94C81A44E050E06CA57DA5C801E4
:101F60000E94F01AF70166A177A180A591A50E94B1
:101F7000043F66A377A380A791A73BCFC8010E9427
:101F8000C81A44E050E06EA57FA5C8010E94F01A6F
:101F9000F70162A573A584A595A50E94043F62A7D9
:101FA00073A784A795A725CFC8010E94C81A44E04B
:101FB00050E06AA57BA5C8010E94F01AF70162A152
:101FC00073A184A195A10E94043F62A373A384A37B
:101FD00095A366A777A780AB91AB0BCFC8010E94F2
:101FE000C81A382E612C712C361409F402CFC8019E
:101FF0000E94C81AFFEF6F1A7F0AF6CFE3960FB65A
:10200000F894DEBF0FBECDBFDF91CF911F910F912E
:10201000FF90EF90DF90CF90BF90AF909F908F9008
:102020007F906F905F904F903F902F9008952F92E8
:102030003F924F925F926F927F928F929F92AF9258
:10204000BF92CF92DF92EF92FF920F931F93CF93A5
:10205000DF9300D01F921F92CDB7DEB78C0120ED29
:1020600037E040E050E061E070E080E090E00E9406
:10207000FB3DD80114966D937D938D939C93179798
:10208000F80160837183828393834801F3E48F0EA8
:10209000911CC4010E94971A64E470E0C4010E947C
:1020A000241B882309F42FC10E94CB386B017C01CB
:1020B000212C312C1D82580182E4A80EB11C48EE5F
:1020C000442E43E0542E612C712CF5018081833025
:1020D00009F400C181111EC0F80184819581A68197
:1020E000B7810196A11DB11D84839583A683B78313
:1020F0000E94CB386C197D098E099F09A3019201BA
:102100000E94C03EA90161E0C801A8DC81E0D501C0
:102110008C93C2C08430F1F4F80184819581A6814A
:10212000B7810196A11DB11D84839583A683B783D2
:102130000E94CB386C197D098E099F09A301920179
:102140000E94C03EA90163E0C80188DCE2E0D5013D
:10215000EC93A2C0813059F5D801DA964D915D918A
:102160006D917C91DD979E012F5F3F4FC8018CDD03
:102170008D83823009F090C089819A81AB81BC81C6
:10218000F80184839583A683B7830E94CB386C19AA
:102190007D098E099F09A30192010E94C03EA901F9
:1021A00063E0C8015BDCED81D501EC937BC082303C
:1021B00009F072C0D801DA964D915D916D917C91D4
:1021C000DD979E012F5F3F4FC8015EDD8D83853017
:1021D00009F05CC083E0F5018083F80182A193A13E
:1021E000A4A1B5A1892B8A2B8B2B41F484E893E021
:1021F000A0E0B0E082A393A3A4A3B5A3F80186A1B5
:1022000097A1A0A5B1A5892B8A2B8B2B61F482A164
:1022100093A1A4A1B5A1B695A7959795879586A3F7
:1022200097A3A0A7B1A7F80182A593A5A4A5B5A5DA
:10223000892B8A2B8B2BA9F482A193A1A4A1B5A1F0
:10224000AC01BD0123E076956795579547952A9592
:10225000D1F7841B950BA60BB70B82A793A7A4A756
:10226000B5A7F80186A197A1A0A5B1A586A797A7B4
:10227000A0ABB1AB82A593A5A4A5B5A582AB93AB4A
:10228000A4ABB5AB22242394312C0CC0FD81F630D5
:1022900019F4D5011C9206C0BD81BF3F19F4F501A8
:1022A00010821D82F1E02F16310409F40ECF0E9436
:1022B000CB386C197D098E099F09D801D6962D91CE
:1022C0003D914D915C91D9972617370748075907DB
:1022D00008F0FBCEC4010E94971AF8018481958111
:1022E000A681B7810196A11DB11D84839583A68324
:1022F000B7830E94CB38F801FE9660837183828396
:102300009383C10102C080E090E00F900F900F9086
:102310000F900F90DF91CF911F910F91FF90EF9051
:10232000DF90CF90BF90AF909F908F907F906F90F5
:102330005F904F903F902F900895CF92DF92EF9251
:10234000FF920F931F93CF93DF93EC016B011AA2BF
:102350001BA21CA21DA21EA21FA218A619A61AA685
:102360001BA61CA61DA62EAB3FAB48AF59AFEAAECD
:10237000FBAE0CAF1DAF8C01085F1F4F86E0F8016C
:1023800011928A95E9F7CE0115DB86E0F601D801B6
:1023900001900D928A95E1F7FE01EE5BFF4F1082EE
:1023A000CE01DF91CF911F910F91FF90EF90DF90C1
:1023B000CF903DCEFB014281538164817581FC0148
:1023C0004283538364837583178216820895FB01C9
:1023D00020E080E090E06AE03191332309F170ED74
:1023E000730F7A3080F4DC016A9FC0016B9F900DFF
:1023F0001124C097830F911D37FD9A958F3F91054A
:1024000059F350F314C03E3291F4233081F0DA01D5
:10241000A20FB11D12968C932F5F80E090E0DCCF6D
:10242000233029F4FA01858381E090E0089580E06B
:1024300090E008950F9300E020E040E060E08CE839
:1024400093E00E94A83C0F910895AF92BF92CF9263
:10245000DF92EF92FF920F931F93CF93DF9300D001
:10246000CDB7DEB76C017B010E94CB38F6017783D4
:1024700066838601085F1F4FB6016A5F7F4F42E0A7
:1024800050E0C8010E94B51A81E090E09A838983E8
:1024900042E050E0BE016F5F7F4FC8010E94B51A55
:1024A00080E091E09A83898342E050E0BE016F5F53
:1024B0007F4FC8010E94B51A1A82198242E050E08B
:1024C000BE016F5F7F4FC8010E94B51A42E050E025
:1024D000BE016F5F7F4FC8010E94B51A42E050E015
:1024E000BE016F5F7F4FC8010E94B51A6701F601F8
:1024F0008081882311F1F7016F018191811115C04D
:102500005601AE18BF081A141B0494F4AB8241E0C4
:1025100050E0BE016D5F7F4FC8010E94B51AA50152
:10252000B701C8010E94B51A03C08E3229F7E8CF5F
:102530007601FFEFEF1AFF0ADACF1B8241E050E08D
:10254000BE016D5F7F4FC8010E94B51AE12CFF24C8
:10255000F394FA82E98242E050E0BE016F5F7F4F60
:10256000C8010E94B51AFA82E98242E050E0BE0139
:102570006F5F7F4FC801F9D781E090E00F900F9017
:102580000F90DF91CF911F910F91FF90EF90DF900F
:10259000CF90BF90AF9008954F925F926F927F92CD
:1025A0008F929F92AF92BF92CF92DF92EF92FF9263
:1025B0000F931F93CF93DF93CDB7DEB763970FB61B
:1025C000F894DEBF0FBECDBF7C015B016A010E94A3
:1025D000CB382B013C018701085F1F4F4501A12C1F
:1025E000B12CC8010E944F1B1816190694F00E94C6
:1025F000CB38641975098609970986169706A806C7
:10260000B906D0F062E370E080E090E00E94FA3812
:10261000E8CFF7014281538164817581808D918D6E
:10262000A28DB38D481759076A077B0741F4848D43
:10263000958DC59721F406C08FEF9FEFE0C08EEF18
:102640009FEFDDC0C80147D70C970CF4D6C04CE013
:1026500050E0BE016F5F7F4FC801C2D78B819C8164
:102660009827892798279A8B898BF701468157816C
:1026700029813A814217530711F497FD05C0C8011B
:1026800044D78CEF9FEFBBC08F709270892B29F0DD
:10269000C8013BD78BEF9FEFB2C0AF80B884BA249C
:1026A000AB24BA24A114B10419F0E12CF12C1DC003
:1026B000C8012BD78AEF9FEFA2C041E050E0BE01D6
:1026C000635F7F4FC8018CD78D85811117C08D85C1
:1026D0008111F3CFC8015CD7C8015AD7C80158D7B8
:1026E000C80156D7FFEFEF1AFF0A8D819E81982708
:1026F00089279827E816F90600F309C08D859FEF12
:10270000980F9D87882319F3C80142D7F7CFE12C92
:10271000F12C41E050E0BE016D5E7F4FC80160D7F3
:102720008B89982F907C59F4882361F08B899FEFD7
:10273000980F9B8B882331F0C8012AD7F7CFC801A7
:1027400027D71B8A8B898111E4CF42E050E0BE017C
:10275000615F7F4FC80144D742E050E0BE01635F34
:102760007F4FC8013DD7C80113D7C80111D7C80191
:102770000FD7C8010DD742E050E0BE016F5E7F4F1A
:10278000C8012ED78F8598898115914029F48D85B0
:102790009E858115914019F0812C912C14C0898956
:1027A0009A898115944029F0C801AFD687EF9FEF31
:1027B00026C0B6016E5F7F4F44E050E0C80110D7DD
:1027C00081E090E01CC089899A89982789279827F9
:1027D0008816990630F4C801DBD62FEF821A920AC8
:1027E000F2CF8FEFE81AF80AEA14FB0409F091CF50
:1027F000C8018BD686EF9FEF02C08DEF9FEF6396E7
:102800000FB6F894DEBF0FBECDBFDF91CF911F9101
:102810000F91FF90EF90DF90CF90BF90AF909F907F
:102820008F907F906F905F904F9008958F929F92BE
:10283000AF92BF92CF92DF92EF92FF920F931F93CE
:10284000CF93DF9300D000D0CDB7DEB78C015B0112
:102850006A01BDDD4C01009709F057C0F8014281C3
:1028600053816481758180918E0390918F03A09133
:102870009003B0919103481759076A077B0709F441
:1028800048C00E94CB387801F8E0EF0EF11C6F7061
:1028900077277C5FC701D8D6813009F03EC082E33C
:1028A00093E09A838983F80182819381A481B58121
:1028B0008B839C83AD83BE8345E350E0BE016F5F95
:1028C0007F4FC70148D6892B19F4812C912C1AC04F
:1028D000B501C801BADD892BC1F3C70143D6892BE5
:1028E000A1F333E0A32EB12CA60168E873E1C8017F
:1028F00053DE4C01F1E0AF1AB10821F08F3F2FEF0A
:10290000920791F3C70113D608C088248394912CB1
:1029100004C09EEF892E99249A94C40126960FB67E
:10292000F894DEBF0FBECDBFDF91CF911F910F9105
:10293000FF90EF90DF90CF90BF90AF909F908F90DF
:10294000089520918403222399F03FB7F8942091B1
:102950008403213059F42DB3209382034DB3209189
:102960008303209524232DBB3FBF02C030938203F5
:102970008CBD9DBD089580918403882361F09FB72D
:10298000F8942091840380918203213019F48DBB47
:102990009FBF08958FBF089544E050E0BC0181E0DF
:1029A00090E00C94012144E050E0BC0185E090E00F
:1029B0000C94012144E050E0BC018FE090E00C94C5
:1029C00001212F923F924F925F926F927F928F924E
:1029D0009F92AF92BF92CF92DF92EF92FF920F93AE
:1029E0001F93CF93DF9300D000D0CDB7DEB76C013B
:1029F0001B0129013A01470158018091F803811117
:102A000006C085ED93E022D781E08093F80382E948
:102A100093E0F6019783868382E294E00E949C20F3
:102A200080E590E08EDF46E050E0B10189E090E083
:102A30000E94012100E020E040E060E0CE0101962C
:102A40000E94A83CCE010396B5DF95DF8501740195
:102A5000A3019201B101F601868197816EDC5C01D0
:102A60008130910591F580E590E06BDFF60166819C
:102A70007781CE0101960E94E10CCE0103969ADF88
:102A8000F60166817781CE0101960E94F70CCE0196
:102A9000039682DFF60166817781CE0101960E945E
:102AA000EC0CCE0103967FDF66DFF601668177814D
:102AB000CE0101960E94020D4B815C816D817E8169
:102AC000F6014283538364837583C50126960FB64E
:102AD000F894DEBF0FBECDBFDF91CF911F910F9154
:102AE000FF90EF90DF90CF90BF90AF909F908F902E
:102AF0007F906F905F904F903F902F9008958F92AE
:102B00009F92AF92BF92CF92DF92EF92FF920F937C
:102B10001F93CF93DF931F921F92CDB7DEB74C0167
:102B20006A01590182E294E069837A830E949C20C1
:102B300080E590E006DF46E050E069817A8189E037
:102B400090E00E940121C601029634DFC80102967E
:102B500023DFC701029627DF0EDFF5014281538193
:102B600064817581F40142835383648375830F907C
:102B70000F90DF91CF911F910F91FF90EF90DF9019
:102B8000CF90BF90AF909F908F9008956F927F925B
:102B90008F929F92AF92BF92CF92DF92EF92FF926D
:102BA0000F931F93CF93DF93CDB7DEB76E970FB61A
:102BB000F894DEBF0FBECDBF6C015B017A01490105
:102BC000380100E02FEF4FEF6FEFCE0149960E94E2
:102BD000A83C22E333E03A8329838B8D9C8DAD8D15
:102BE000BE8D8B839C83AD83BE8338872F83F30197
:102BF00082819381A481B58189879A87AB87BC87BD
:102C00003E872D87F40182819381A481B5818F87CE
:102C1000988BA98BBA8B3C8B2B8BF701428153810C
:102C2000648175814D8B5E8B6F8B788FCE010196A1
:102C30007C018E01095F1F4F9E01235F3F4FAE0154
:102C40004D5E5F4FB501C6015ADF6E960FB6F89420
:102C5000DEBF0FBECDBFDF91CF911F910F91FF90CF
:102C6000EF90DF90CF90BF90AF909F908F907F902C
:102C70006F900895CF92DF92EF92FF920F931F9380
:102C8000CF93DF93CDB7DEB768970FB6F894DEBF6A
:102C90000FBECDBF6B017901DA0112964D915D91A6
:102CA0006D917C9115974D8B5E8B6F8B788FA2E326
:102CB000B3E0BA83A98321E0288F0D891E892F896B
:102CC000388D0B831C832D833E83B887AF83F70138
:102CD000028113812481358109871A872B873C87DC
:102CE000BE87AD874F87588B698B7A8B8E010F5FBC
:102CF0001F4F9E01295F3F4FAE01435F5F4FB601FB
:102D000045DF68960FB6F894DEBF0FBECDBFDF91EA
:102D1000CF911F910F91FF90EF90DF90CF9008958A
:102D20000F931F93CF93DF93CDB7DEB762970FB6A4
:102D3000F894DEBF0FBECDBFDB01FA0142815381A3
:102D4000648175814F87588B698B7A8BE2E3F3E05E
:102D5000FA83E98321E02A8B0F85188929893A892A
:102D60000B831C832D833E83F887EF8349875A8723
:102D70006B877C879E012F5F3F4FAE01495F5F4F9E
:102D8000BD0178DF62960FB6F894DEBF0FBECDBFEF
:102D9000DF91CF911F910F910895CF93DF93EC01B5
:102DA0000E949E3C80E590E0CCDDBE016E5F7F4FCF
:102DB00044E050E08FE090E00E941722DCDDCE017D
:102DC000DF91CF91089522E333E0FC01318320832A
:102DD000FB014281538164817581FC0142835383ED
:102DE0006483758308950F9300E020E040E060E085
:102DF00088E094E00E94A83C80EF93E00F910C944F
:102E00009E3C81E086270895862F0895DC01ED9190
:102E1000FC91048CF58DE02D199591E0892708959A
:102E2000CF93DF931F92CDB7DEB76983DC01ED91BD
:102E3000FC910280F381E02D41E050E0BE016F5F24
:102E40007F4F19950F90DF91CF91089521E0FC01FC
:102E50008485843009F420E0822F0895FC01948554
:102E6000FB018485981303C081E0943009F480E06D
:102E700008950F931F93CF93DF93EC018A018C8504
:102E8000843019F01ED7892B39F481E090E09B83C0
:102E90008A8380E090E001C0C801DF91CF911F914B
:102EA0000F910895FC018485843009F0F1C780E01A
:102EB00090E00895CF93DF931F92CDB7DEB741E046
:102EC00050E0BE016F5F7F4FFC01848585D71816E7
:102ED00019061CF4898190E002C08FEF9FEF0F90DC
:102EE000DF91CF910895FC01848576C70F931F93DE
:102EF000CF93DF931F92CDB7DEB78C01DC01ED914C
:102F0000FC910480F581E02D1995892B49F0BE01D3
:102F10006F5F7F4FF8018485E4D7898190E002C01C
:102F20008FEF9FEF0F90DF91CF911F910F91089539
:102F3000FC0184850C949F1FCF92DF92EF92FF9249
:102F40000F931F93CF93DF93CDB7DEB7AF970FB635
:102F5000F894DEBF0FBECDBF7C018B016A01CE01AC
:102F600001960E949E3CCE01099670D4CE018A96AD
:102F70000E949E3C60EF73E0CE01849624DFBE0188
:102F80006C5D7F4FCE01019615DAAE01465D5F4F55
:102F9000B801CE0101964ADC81309105C1F4D70118
:102FA000ED91FC910484F585E02D82E393E09DA3EF
:102FB0008CA30CA51DA52EA53FA50EA31FA328A776
:102FC00039A7A601BE016C5D7F4FC7011995AF9669
:102FD0000FB6F894DEBF0FBECDBFDF91CF911F912A
:102FE0000F91FF90EF90DF90CF900895FC01262F76
:102FF0001382128248EE53E060E070E04483558310
:10300000668377838EEA92E0918380832487089594
:10301000FC018485843009F00DC580E00895DF92BD
:10302000EF92FF920F931F93CF93DF93EC017B01FD
:103030008A018C85843009F040C0D12C8D2DFAD4C2
:10304000811102C0DC8607C08B7F8831D9F3D3940D
:1030500084E0D812F3CF8C85843079F120910A0274
:1030600030910B022F5F3F4F11F420E030EC309392
:103070000B0220930A0240910A0250910B0220E0B9
:1030800061E025D5B7016E5F7F4FA8018C859FD584
:10309000811103C084E08C8710C0CE01B9DF873175
:1030A00049F061E070E080E090E00E94FA38CE01E3
:1030B000AFDFEECF81E090E002C080E090E0DF91F2
:1030C000CF911F910F91FF90EF90DF900895CF92D5
:1030D000DF92EF92FF92CF93DF93EC018C858430E7
:1030E00031F1CAD50E94CB386B017C01CE0190DF53
:1030F000882399F061E070E080E090E00E94FA3867
:103100000E94CB386C197D098E099F09683E734077
:103110008105910558F38C85B2D4EC85F0E0EE0F73
:10312000FF1FE050FC4F1182108284E08C87DF91FA
:10313000CF91FF90EF90DF90CF900895CF93DF93E2
:10314000EC018C858430C9F0CE0162DF8431A9F0B6
:10315000882399F0883189F08C3169F4E881F9810C
:103160000480F581E02DCE01199521E0892B09F429
:1031700020E0822F03C081E001C080E0DF91CF9189
:1031800008950F9300E020E040E060E08EE094E0DE
:103190000E94A83C0F910895CF93DF931F92CDB763
:1031A000DEB76983DC01ED91FC910280F381E02DB3
:1031B00041E050E0BE016F5F7F4F19950F90DF91A6
:1031C000CF910895EF92FF920F931F93CF93DF93C8
:1031D000CDB7DEB72D970FB6F894DEBF0FBECDBFCB
:1031E0007C0100E010E0602FCE010196FFDECE01F1
:1031F00001960EDF811114C0F7014481558120E052
:1032000061E0802F64D4802FB2D4F701848195814E
:10321000F801EE0FFF1FE050FC4F9183808305C043
:103220000F5F1F4F04301105F1F62D960FB6F8947D
:10323000DEBF0FBECDBFDF91CF911F910F91FF90E9
:10324000EF900895FC011382128282ED92E0918347
:103250008083758364830895BF92CF92DF92EF924B
:10326000FF920F931F93CF93DF93CDB7DEB72D97C8
:103270000FB6F894DEBF0FBECDBF8C0140E0C42E68
:1032800044E0D42EB12CE12CF12C6B2DCE01019613
:10329000ADDED6012D913D916D01F80184819581BE
:1032A0002817390799F4CE010196B2DE843159F01E
:1032B000CE010196ADDE8C3149F4CE010196F2DDEE
:1032C000892B99F003C0EE24E394F12CB394F4E03D
:1032D000BF12DBCFEF2869F4D801ED91FC91048097
:1032E000F581E02DC801199504C0CE010196EFDEED
:1032F000EDCF2D960FB6F894DEBF0FBECDBFDF9198
:10330000CF911F910F91FF90EF90DF90CF90BF90E2
:1033100008957F928F929F92AF92BF92CF92DF9249
:10332000EF92FF920F931F93CF93DF93CDB7DEB74A
:103330002D970FB6F894DEBF0FBECDBF6C015B01B9
:103340004A018ADF50E0E52E54E0F52E712C00E0B2
:1033500010E0672DCE01019649DEF70121913191F0
:103360007F01F601848195812817390729F4CE0160
:1033700001964EDE8731C9F07394F4E07F12E9CFF5
:10338000C8012D960FB6F894DEBF0FBECDBFDF91FA
:10339000CF911F910F91FF90EF90DF90CF90BF9052
:1033A000AF909F908F907F900895A401B501CE01BA
:1033B00001965FDD080F191FDFCFBF92CF92DF921A
:1033C000EF92FF920F931F93CF93DF93CDB7DEB7AA
:1033D0002D970FB6F894DEBF0FBECDBF8C016B01E9
:1033E000CB013ADF60E0E62E64E0F62EB12C6B2DC7
:1033F000CE010196FBDDF701219131917F01F601AC
:10340000848195812817390741F5CE01019600DEA8
:10341000873111F08C3109F5CE01019643DD892BFE
:10342000E1F08B819C81F801938382838D819E8161
:10343000AF81B88584839583A683B78349855A85F0
:103440006B857C8540875187628773878EEA92E01F
:10345000918380838D85848707C0B394F4E0BF1285
:10346000C6CF64E0C801C2DDC8012D960FB6F8943E
:10347000DEBF0FBECDBFDF91CF911F910F91FF90A7
:10348000EF90DF90CF90BF9008950F9300E020E081
:1034900040E060E084E194E00E94A83C0F91089530
:1034A000DC01ED91FC91008CF18DE02D199422E36B
:1034B00033E0FC0131832083FB014089518962891B
:1034C0007389FC0142835383648375830895FC01EF
:1034D000848995890895FC01818D928D0895CF93FB
:1034E000DF931F92CDB7DEB76983DC01ED91FC91CC
:1034F0000280F381E02D41E050E0BE016F5F7F4F1D
:1035000019950F90DF91CF910895CF93DF93EC0140
:10351000898D9A8D892B41F0E881F9810680F781A8
:10352000E02DCE011995F4CFDF91CF910895CF937F
:10353000DF93EC01888D843059F0A1D2E88DF0E062
:10354000EE0FFF1FE050FC4F1182108284E0888F45
:10355000DF91CF910895FC01178A168A6E5F7F4F25
:10356000808D32C5FC01808D73C5CF93DF93EC0154
:103570009A018E899F89AB01BC01888DE1D42E8987
:103580003F89280F391F3F8B2E8BDF91CF910895F4
:103590000F931F93CF93DF931F92CDB7DEB78C01AC
:1035A000FC01818D928D892B51F041E050E0BE01EC
:1035B0006F5F7F4F808D10D4181619061CF08FEFA7
:1035C0009FEF08C0F801818D928D0197928F818FB6
:1035D000898190E00F90DF91CF911F910F91089515
:1035E000CF93DF93EC01898D9A8D009719F48FEFBB
:1035F0009FEF0FC04817590708F0AC01888DECD336
:1036000018161906A4F7298D3A8D281B390B3A8F05
:10361000298FDF91CF910895CF93DF931F92CDB77C
:10362000DEB7FC01218D328D232B41F0BE016F5F8F
:103630007F4F808D56D4898190E002C08FEF9FEF3D
:103640000F90DF91CF910895FF920F931F93CF9327
:10365000DF93EC018B01888D8430D1F4F12C8F2D18
:10366000E9D1811102C0F88E06C08831E1F3F394EC
:1036700084E0F812F4CF888D843051F01D870C87D8
:103680001A8E198E20E0A80162E021D281E001C0EB
:1036900080E0DF91CF911F910F91FF9008950F93DC
:1036A0001F93CF93DF93CDB7DEB728970FB6F8946B
:1036B000DEBF0FBECDBF8C01DC01ED91FC91028419
:1036C000F385E02D1995F801808DE2D318161906BF
:1036D0003CF548E050E0BE016F5F7F4FD80158963F
:1036E0008C917AD318161906ECF4BE016F5F7F4FE8
:1036F000C8010E960E94C43C8D8190E0982F8827C7
:103700002E81820F911DF801958B848B8F8190E023
:10371000982F88272885820F911D928F818F02C054
:1037200080E090E028960FB6F894DEBF0FBECDBFC4
:10373000DF91CF911F910F9108958F929F92AF9239
:10374000BF92CF92DF92EF92FF920F931F93CF938E
:10375000DF9300D000D0CDB7DEB78C017B014A01EA
:10376000FC01808D843009F05DC073E0A72E74E009
:10377000B72EC12CD12CC5016DD5811103C0F80124
:10378000C08E0AC08831D9F3FFEFCF1ADF0AB39495
:10379000E4E0CE16D10479F7F801808D843009F485
:1037A00041C096E0E5E2F2E0DE01119601900D9253
:1037B0009A95E1F7F70193819F779C8394819D838C
:1037C00095819E83B7016E5F7F4F90E0982F882789
:1037D00044E050E0845F9B4F14D5F801808D90E069
:1037E0000496F82EEE24692DC701409688D4682DE2
:1037F000C701419684D4F801808D90E0982F8827E6
:1038000046E050E0BE016F5F7F4F8A5F9B4FF9D467
:10381000F801128E118E20E8A40162E0808D57D14C
:1038200081E001C080E026960FB6F894DEBF0FBE9F
:10383000CDBFDF91CF911F910F91FF90EF90DF905F
:10384000CF90BF90AF909F908F900895CF93DF93CC
:10385000EC011B821A8248EE53E060E070E04C837A
:103860005D836E837F838CED92E099838883CE01A4
:103870000E960E949E3C84E0888FDF91CF91089540
:10388000CF92DF92EF92FF920F931F93CF93DF932C
:10389000CDB7DEB7AF970FB6F894DEBF0FBECDBF82
:1038A0007C018B016A01CE0101960E949E3CCE01F3
:1038B0000996CCDFCE018A960E949E3C60EF73E0B1
:1038C000CE01849680DABE016C5D7F4FCE010196F9
:1038D0000E94DA11AE01465D5F4FB801CE0101963C
:1038E0000E94161481309105C1F4D701ED91FC912D
:1038F0000088F189E02D82E393E09DA38CA30CA5C1
:103900001DA52EA53FA50EA31FA328A739A7A60175
:10391000BE016C5D7F4FC7011995AF960FB6F89445
:10392000DEBF0FBECDBFDF91CF911F910F91FF90F2
:10393000EF90DF90CF9008950F9300E020E040E0FB
:1039400060E08AE194E00E94A83C0F910895CF9234
:10395000DF92EF92FF920F9330E0C12CF2E1DF2E65
:10396000FAE7EF2EF12C4C155D056E057F0540F44E
:10397000F694E794D794C7943F5F3630A1F737E0C9
:1039800041E04327211102C050E701C050E5242F38
:1039900030E03595279523700C70202B252BFC01EA
:1039A0002083417041830F91FF90EF90DF90CF9083
:1039B000089590E0982F882744E050E0845F9B4F63
:1039C00020C4282F30E02C5F3F4F922F8827860F8E
:1039D000971F40C462E070E0F4CFFB01282F30E075
:1039E0002C5F3F4F922F8827642F8E0F9F1F87C316
:1039F000CF93DF93C82FD62F472F64E070E0EDDF21
:103A00004D2F65E070E08C2FDF91CF91E6CF462FF0
:103A100062E070E0E2CFCF93DF93C82FD62F472F1D
:103A200060E170E0DADF4D2F61E170E08C2FDF9113
:103A3000CF91D3CF0F931F93CF93DF9300D0CDB708
:103A4000DEB7182F00E021E040E059E06DE370E0C0
:103A5000CE0101967CDF89819A810E94A11463E0E6
:103A600070E0812FAEDF8B830E94BB148B810F909F
:103A70000F900F90DF91CF911F910F9108950F93A9
:103A80001F93CF93DF931F921F92CDB7DEB7182FEE
:103A900000E021E040E059E06DE370E0CE010196E6
:103AA00056DF89819A810E94A11440E150E0612F84
:103AB00082E294E078D56FEF812FA9DF0E94BB14DA
:103AC0000F900F90DF91CF911F910F910895CF929A
:103AD000DF92EF92FF920F931F93CF93DF931F928A
:103AE0001F92CDB7DEB7182FD62E7A01C22E8FEFD8
:103AF000860F853080F5812FC2DF00E021E040E0B5
:103B000059E06DE370E0CE01019621DF89819A8151
:103B10000E94A1144D2D4C2960E070E0812F5DDFE3
:103B2000E114F10411F0B7010AC060912004709112
:103B300021046F5F7F4F7093210460932004812FD5
:103B400057DF41E050E0612F82E294E02CD50E94E3
:103B5000BB1481E001C080E00F900F90DF91CF9106
:103B60001F910F91FF90EF90DF90CF9008950F93EA
:103B70001F93CF93DF931F921F92CDB7DEB7182FFD
:103B800000E021E040E059E06DE370E0CE010196F5
:103B9000DEDE89819A810E94A11463E070E0812FAA
:103BA00010DF833121F00E94BB1480E009C042E0A5
:103BB00050E0612F82E294E0F6D40E94BB1481E0D1
:103BC0000F900F90DF91CF911F910F910895CF9299
:103BD000DF92EF92FF920F931F93CF93DF931F9289
:103BE0001F92CDB7DEB7182F7B016A01FB018081E0
:103BF0008F3F51F481818F3F99F482818F3F81F40F
:103C000083818F3F69F42CC081110AC0FB0181813F
:103C1000811106C08281811103C08381882301F153
:103C2000C114D104E9F000E021E040E059E06DE387
:103C300070E0CE0101968BDE89819A810E94A114E9
:103C4000B701812FB6DEB601812FE5DE44E050E0FA
:103C5000612F82E294E0A7D40E94BB1481E001C0EE
:103C600080E00F900F90DF91CF911F910F91FF9007
:103C7000EF90DF90CF9008950F931F93CF93DF9332
:103C80001F921F92CDB7DEB7182F00E021E040E071
:103C900059E06DE370E0CE01019659DE89819A8189
:103CA0000E94A11448E050E0612F82E294E07BD4AE
:103CB0000E94BB140F900F90DF91CF911F910F9135
:103CC0000895BF92CF92DF92EF92FF920F931F93CE
:103CD000CF93DF9300D0CDB7DEB7B82E6B017A015A
:103CE000413088E0580718F0E12C98E0F92E00E008
:103CF00021E040E059E06DE370E0CE01019627DE5F
:103D000089819A810E94A1146B2D82E294E0D2D223
:103D10008C0163E070E08B2D54DE8B830E94BB141A
:103D20008B81873111F08C3131F40E9480380E156F
:103D30001F05E8F202C0E12CF12C00E021E040E098
:103D400059E06DE370E0CE01019601DE89819A8130
:103D50000E94A1149701A6016B2D82E294E05DD32D
:103D600040E250E06B2D82E294E01DD48B2D32DED8
:103D700084FD1FC063E070E08B2D23DE811107C03E
:103D80000E94BB148B2D7BDE80E090E018C00E9467
:103D9000BB140E94803800E021E040E059E06DE370
:103DA00070E0CE010196D3DD89819A810E94A11431
:103DB000DDCF60E18B2D2BDE0E94BB14C7010F907D
:103DC0000F900F90DF91CF911F910F91FF90EF9087
:103DD000DF90CF90BF900895AF92BF92CF92DF92C5
:103DE000EF92FF920F931F93CF93DF931F921F9237
:103DF000CDB7DEB7182F5B016A0100E021E040E09B
:103E000059E06DE370E0CE010196A1DD89819A81D0
:103E10000E94A114612F82E294E07CD27C01009781
:103E200099F463E070E0812FCCDD843109F18823BF
:103E3000F9F021E030E08C3111F420E030E0EE24A4
:103E4000FF24E21AF30A14C0C816D9060CF476014E
:103E50001E141F046CF400E09701A501612F82E29B
:103E600094E056D340E450E0612F82E294E09BD38B
:103E70000E94BB14C7010F900F90DF91CF911F914B
:103E80000F91FF90EF90DF90CF90BF90AF9008958B
:103E90000F931F93CF93DF9300D01F92CDB7DEB760
:103EA000182F00E021E040E059E06DE370E0CE0122
:103EB00001964DDD89819A810E94A114612F82E2D1
:103EC00094E028D28B839C830E94BB148B819C81BD
:103ED0000F900F900F900F90DF91CF911F910F9146
:103EE0000895EF92FF920F931F93CF93DF931F924A
:103EF0001F92CDB7DEB7182F7B0100E021E040E034
:103F000059E06DE370E0CE01019621DD89819A814F
:103F10000E94A11401E021E030E0A701612F82E2BC
:103F200094E0F6D20E94BB1481E090E00F900F90D5
:103F3000DF91CF911F910F91FF90EF900895089519
:103F40009F92AF92BF92CF92DF92EF92FF920F9328
:103F50001F93CF93DF931F921F92CDB7DEB7982E9A
:103F60006B015A01790100E021E040E059E06DE386
:103F700070E0CE010196EBDC89819A810E94A11448
:103F8000692D82E294E096D18E159F0528F4692D63
:103F900082E294E08FD17C0187019501A601692D11
:103FA00082E294E0D1D10E94BB14C7010F900F9020
:103FB000DF91CF911F910F91FF90EF90DF90CF9005
:103FC000BF90AF909F900895CF92DF92EF92FF92B3
:103FD0000F931F93CF93DF931F921F92CDB7DEB73E
:103FE000182F7B016A01FB018081811109C0818149
:103FF000811106C08281811103C083818823D9F099
:10400000C114D104C1F000E021E040E059E06DE3CB
:1040100070E0CE0101969BDC89819A810E94A114F7
:10402000B701812FC6DCB601812FF5DC0E94BB14DD
:1040300081E090E002C080E090E00F900F90DF916F
:10404000CF911F910F91FF90EF90DF90CF90089547
:104050000F931F93CF93DF931F921F92CDB7DEB7BD
:10406000182F00E021E040E059E06DE370E0CE0160
:1040700001966DDC89819A810E94A11440E250E092
:10408000612F82E294E08FD2812FA4DC84FD1EC0D8
:10409000812FA0DC83FF08C068E1812FB8DC0E947B
:1040A000BB1480E090E019C00E94BB140E948038CD
:1040B00000E021E040E059E06DE370E0CE010196C0
:1040C00046DC89819A810E94A114DECF60E1812FB4
:1040D0009EDC0E94BB1481E090E00F900F90DF9176
:1040E000CF911F910F9108958EBD00000DB407FE72
:1040F000FDCF8EB508952C9808952C9A08951F939E
:10410000CF93DF931F921F92CDB7DEB7182F6A832C
:104110009983F1DF80EFE8DF9981892FE5DF812F37
:10412000E3DF6A81862FE0DFE8DF81E00F900F9008
:10413000DF91CF911F910895CF93DF93EC016CE253
:1041400071E080E090E00E94FA380E94A40C249A6A
:1041500080918403882399F09FB7F8948091840319
:10416000813059F48DB3809382032DB38091830302
:10417000809582238DBB9FBF02C09093820380E510
:104180008CBD1DBC60E880E090E0B9DF65E58BE1A7
:1041900090E0B5DF65E58AE190E0B1DF80918403CE
:1041A000882361F09FB7F894209184038091820363
:1041B000213019F48DBB9FBF01C08FBF80E090E418
:1041C0009983888380E090E69987888780E098E4E7
:1041D0009B838A8380E098E69B878A8780E090E5CE
:1041E0009D838C8380E090E79D878C8780E098E5B5
:1041F0009F838E8380E098E79F878E87DF91CF91A2
:104200000895CF92DF92EF92FF920F931F93CF9377
:10421000DF93EC017A018B016C01C40ED51ECC1525
:10422000DD0571F068DF80EF5FDF8D2F5DDF8C2FA4
:104230005BDF2196F80181918F0156DF5EDFEFCFC2
:10424000C701DF91CF911F910F91FF90EF90DF9009
:10425000CF9008951F93CF93DF931F92CDB7DEB712
:10426000182F998348DF8FE03FDF9981892F3CDF4A
:10427000812F3ADF80E038DF89833FDF89810F902B
:10428000DF91CF911F9108951F93CF93DF93182F44
:1042900060E270E096DBC82FD0E061E270E0812F31
:1042A00090DBDC2FCC279E01282BC901DF91CF9119
:1042B0001F910895FF920F931F93CF93DF93F62ED4
:1042C000C0E0D0E08F2DE0DF8C01009719F08F2D3A
:1042D000DBDFEC01C017D107A9F7CE01DF91CF9149
:1042E0001F910F91FF9008951F93CF93DF93182F85
:1042F00066E270E066DBC82FD0E067E270E0812FF5
:1043000060DBDC2FCC279E01282BC901DF91CF91E8
:104310001F910895FF920F931F93CF93DF93F62E73
:10432000C0E0D0E08F2DE0DF8C01009719F08F2DD9
:10433000DBDFEC01C017D107A9F7CE01DF91CF91E8
:104340001F910F91FF9008956F927F929F92AF926D
:10435000BF92CF92DF92EF92FF920F931F93CF9372
:10436000DF931F92CDB7DEB7D82E962E3A015901B2
:1043700064E270E0892D998324DBE82EF12C65E25C
:1043800070E0892D1EDBFE2CEE24E82AE60CF71CDB
:10439000970137706D2C9981792E690C711C690C0D
:1043A000711CD301ED91FC91E20FF31FC901800F45
:1043B000911F8130984098F0C12C48E0D42EC21A49
:1043C000D30AA601B501CF011CDFA8014C195D0974
:1043D000B5016C0D7D1DF3018081918103C0A801A1
:1043E000B501CF010EDFE00EF11E4F2D64E270E04B
:1043F000892DF3DA4E2D65E270E0892D0F90DF9163
:10440000CF911F910F91FF90EF90DF90CF90BF90D1
:10441000AF909F907F906F90E0CA0F931F93890198
:104420009A0140E050E090DF1F910F910895CF92E4
:10443000DF92EF92FF920F931F93CF93DF93EC01E4
:104440007A018B016C01C40ED51ECC15DD0579F007
:1044500052DE8FE049DE8D2F47DE8C2F45DE219620
:1044600080E042DEF80181938F0147DEEECFC70185
:10447000DF91CF911F910F91FF90EF90DF90CF9040
:104480000895AF92BF92CF92DF92EF92FF920F9377
:104490001F93CF93DF931F921F92CDB7DEB75A833E
:1044A00049835901E981FA81F7707C01E60EF11C1C
:1044B000E60EF11CD70118968D919C9119978E0FDD
:1044C0009F1F98012E0F3F1F2130384090F0C12CC4
:1044D00068E0D62ECE1ADF0AA601B501A8DFA80132
:1044E0004C195D09B5016C0D7D1DF7018085918525
:1044F00002C0A801B5010F900F90DF91CF911F91DD
:104500000F91FF90EF90DF90CF90BF90AF908FCF43
:104510008F929F92AF92BF92CF92DF92EF92FF92D3
:104520000F931F93CF93DF936C01962E5A0179015D
:10453000802E68E270E0892D44DAC82FD0E069E26D
:1045400070E0892D3EDADC2FCC27C82B870195013E
:10455000AE01692DC60195DF811018C0CE0DDF1D9B
:104560004D2F68E270E0892D38DA4C2F69E270E057
:10457000892DDF91CF911F910F91FF90EF90DF90E8
:10458000CF90BF90AF909F908F9027CADF91CF912F
:104590001F910F91FF90EF90DF90CF90BF90AF9061
:1045A0009F908F900895CF93C62F61E070E08C2F7D
:1045B00014DA61E070E08C2F04DA8111FACFCF9128
:1045C0000895CF93DF931F92CDB7DEB76983DC01E7
:1045D000ED91FC910280F381E02D41E050E0BE01BD
:1045E0006F5F7F4F19950F90DF91CF910895CF9313
:1045F000DF93EC01898D9A8D009759F0FC011382AD
:1046000012820E94EE30E98DFA8D22813381232BB4
:1046100031F081E090E09B838A8380E090E0DF913D
:10462000CF910895FC01818D928D009711F00C942B
:10463000482D0895CF93DF931F92CDB7DEB741E0A9
:1046400050E0BE016F5F7F4F0E945E2B019719F40F
:10465000898190E002C08FEF9FEF0F90DF91CF91A3
:104660000895FC01818D928D009709F0E3CF8FEFC3
:104670009FEF08950F931F93CF93DF938C01FC015D
:10468000818D928D0097B1F0D5DFEC018F3FFFEF68
:104690009F0799F0F801818D928DFC014285538529
:1046A0006485758541505109610971090E94AD2CDD
:1046B000CE0105C080E090E002C08FEF9FEFDF9158
:1046C000CF911F910F910895CF92DF92EF92FF92B9
:1046D0000F931F93CF93DF93EC017B016A011B8241
:1046E0001A8208EE13E020E030E00C831D832E8355
:1046F0003F8382E093E0998388838DE190E00E947C
:10470000283F9A8F898F009779F02DE1F701DC011E
:1047100001900D922A95E1F74CE050E0B601CE01F0
:104720000C960E942043188EDF91CF911F910F911C
:10473000FF90EF90DF90CF900895FC0113821282DA
:1047400048EE53E060E070E04483558366837783EE
:1047500082E093E091838083128E118E14860895F7
:10476000DC015996ED91FC915A97309729F06285BA
:1047700073858485958508956FEF7FEFCB0108954C
:10478000DC015996ED91FC915A97309729F0638995
:10479000748985899689089560E070E0CB01089559
:1047A000CF92DF92EF92FF92CF93DF93EC01898D4E
:1047B0009A8D892BC9F0CE01E3DF6B017C01CE011C
:1047C000CFDFA7019601261B370B480B590BDA01E7
:1047D000C901811530E89307A105B10538F08FEFC5
:1047E0009FE7A0E0B0E002C080E090E0DF91CF91D1
:1047F000FF90EF90DF90CF900895CF93DF93EC017F
:10480000898D9A8D009741F00E948D2D898D9A8D0A
:104810000E94C03F1A8E198EDF91CF910895DC015E
:104820005996ED91FC915A97309721F081E095814E
:10483000911101C080E008951F93CF93DF93CDB70E
:10484000DEB76D970FB6F894DEBF0FBECDBFAB01DC
:104850001C821B8222E133E03A8329831E8221E0FD
:10486000BC01CE0101960E94B72E11E0811102C059
:1048700010E004C0CE0101960E948D2D812F6D960F
:104880000FB6F894DEBF0FBECDBFDF91CF911F9161
:104890000895EF92FF920F931F93CF93DF93CDB7BD
:1048A000DEB76D970FB6F894DEBF0FBECDBF8C019B
:1048B0007B011C821B8282E193E09A8389831E82A2
:1048C000C801BADF982F81110AC0A701B801CE0133
:1048D00001960E94962F91E0811101C090E0892FEE
:1048E0006D960FB6F894DEBF0FBECDBFDF91CF91AE
:1048F0001F910F91FF90EF900895CF93DF93CDB765
:10490000DEB76D970FB6F894DEBF0FBECDBF442360
:10491000C9F01C821B8222E133E03A8329831E8284
:1049200021E0AB01BC01CE0101960E94B72E882385
:1049300039F0CE0101960E94B03091E0811103C0A0
:1049400090E001C091E0892F6D960FB6F894DEBF1C
:104950000FBECDBFDF91CF910895442339F00E945F
:10496000893091E0811103C090E001C091E0892F6E
:104970000895CF93DF93FB0120813181FC01E20F89
:10498000F31FE081EF3211F42F5F3F4FDA01E0E0D7
:10499000F0E0EC01C20FD31FC881CF3249F0CC2325
:1049A00039F031962F5F3F4FCD93EC30F10589F709
:1049B000E40FF51F1082FC01E20FF31F40814F321C
:1049C00011F42F5F3F4FFB0131832083FC01E20F85
:1049D000F31F81E09081911101C080E0DF91CF91C0
:1049E00008954F925F926F927F928F929F92AF92B3
:1049F000BF92CF92DF92EF92FF920F931F93CF93CC
:104A0000DF93CDB7DEB7C954D1090FB6F894DEBF36
:104A10000FBECDBF5C016B013A01490119A218A27A
:104A200082E193E09F8F8E8F1BA21C821B829A8350
:104A300089831E822A961FAE1EAE2A978B017E01A5
:104A40008EE1E80EF11C44244394AE01455C5F4FB7
:104A5000BE01685B7F4FC5018CDF582E482F44256F
:104A60009401BE01655C7F4FC801F3011995811166
:104A700008C00C151D0519F0C8010E948D2D80E09D
:104A800027C05520B9F021E0AE01455C5F4FB80169
:104A9000C7010E94B72E582E0C151D0599F0C801AC
:104AA0000E948D2D552059F3902F812F8701E92EDB
:104AB000F82ECBCF0C151D0519F0C8010E948D2DC5
:104AC00081E006C08823D9F28E010F5F1F4FECCF23
:104AD000C75BDF4F0FB6F894DEBF0FBECDBFDF91CF
:104AE000CF911F910F91FF90EF90DF90CF90BF90EB
:104AF000AF909F908F907F906F905F904F900895B0
:104B00000F931F93CF93DF93EC01462F61E0BED24A
:104B1000811102C080E01CC08E01045F1F4F41E084
:104B2000BE01C8010E942236882351F0B801CE018F
:104B30008A9674D591E0811101C090E0892F08C058
:104B400040E0BE01C8010E942236882319F3EECF4F
:104B5000DF91CF911F910F910895FC01DB01129617
:104B60008D919C9113979383828382E193E091834B
:104B7000808314968C911497848315968C91159745
:104B8000858316964D915D916D917C911997468321
:104B90005783608771871A964D915D916D917C91D5
:104BA0001D9742875387648775871E964D915D9147
:104BB0006D917C91519746875787608B718B529688
:104BC0008C915297828B53964D915D916D917C9112
:104BD0005697438B548B658B768B57964D915D9191
:104BE0006D917C915A97478B508F618F728F5B9636
:104BF0008D919C915C97948F838F08954F925F92D3
:104C00006F927F928F929F92AF92BF92CF92DF92DC
:104C1000EF92FF920F931F93CF93DF93CDB7DEB741
:104C2000C754D1090FB6F894DEBF0FBECDBF6C01DB
:104C30004A013901665D7F4F5E018EE1A80EB11C0D
:104C4000C5018BDF1C821B8282E193E09A838983FA
:104C50001E828401FE0131967F015A2C4B2C6FE29B
:104C600070E0C8010E9405430097D9F1F801208146
:104C70002F3219F40F5F1F4FF2CF801B8D3008F0D9
:104C80008CE0A82EB12CA501B801CE01CB960E94D4
:104C90002043EBE3F0E0EC0FFD1FEA0DFB1D10825B
:104CA000C7013BD721E0AE01455C5F4F652D742DF8
:104CB000C7010E94B72E811109C0F601138212822A
:104CC00082E193E091838083158214C00A0D1B1D3D
:104CD000852D942D22D7C2015E2C4F2CE92EF82E63
:104CE000BECF08191909F30111830083652D742DB6
:104CF000C60133DFC601C95BDF4F0FB6F894DEBFD4
:104D00000FBECDBFDF91CF911F910F91FF90EF901C
:104D1000DF90CF90BF90AF909F908F907F906F90DB
:104D20005F904F9008959F92AF92BF92CF92DF9283
:104D3000EF92FF920F931F93CF93DF93CDB7DEB720
:104D4000C955D1090FB6F894DEBF0FBECDBF7C01A7
:104D50006B015A01922E9E01285A3F4FCE01CB96ED
:104D60004DDF6A960EAD1FAD6A970A0D1B1DF80147
:104D70008081811109C0BE01655C7F4FCE01019623
:104D8000ECDE4EE252E03BC019A218A282E193E0B1
:104D90009F8F8E8F1BA221968FAD2197811103C00B
:104DA000C701CBDC31C08250823058F4B601665D59
:104DB0007F4F292DA801CE014E96D9D781110EC063
:104DC000EFCF292DA801BE01655C7F4FCE014E9625
:104DD000CED7882329F3CE01CB969FD6892D867016
:104DE00039F049A95AA96BA97CA9CE014E96B5D52F
:104DF000BE01625E7F4FCE010196AFDEA801BE010B
:104E00006F5F7F4FC70160DCC701C75ADF4F0FB626
:104E1000F894DEBF0FBECDBFDF91CF911F910F91F0
:104E2000FF90EF90DF90CF90BF90AF909F9008954C
:104E3000FB01BC01665D7F4F20E030E049E454E2B5
:104E4000CF01CFCDFB01BC01665D7F4F20E030E09C
:104E50004DE754E2CF01C5CDFB01BC01665D7F4F3C
:104E600020E030E04DEA54E2CF01BBCD1092370490
:104E70001092380410923B0410923D0482E090E0BE
:104E8000A0E0B0E080933E0490933F04A0934004E0
:104E9000B09341041092550410925F0410925E0486
:104EA00082E193E090935D0480935C04109261042E
:104EB00008959FB7F8942091840380918203213054
:104EC00019F48DBB9FBF08958FBF08958FEF0CC954
:104ED00061E0FC0184810E94183A80917B04882360
:104EE00031F010927B04809184038111E2CF089508
:104EF000CF93DF93EC0180917B04811109C081E0A5
:104F000080937B0480917C0490917D040E94A11485
:104F100060E08C81DF91CF910C94183ACF93DF93AE
:104F2000EC018E81882379F08F8198859C012F5F19
:104F30003F4F38872F838230924010F4C7DFF4CF81
:104F4000CE01C6DF1E82DF91CF910895673028F031
:104F500026E1FC01258380E00895623081F030F481
:104F6000662359F06130B1F480E515C0643059F022
:104F700040F0653079F482E50EC080E505C081E53A
:104F800003C081E508C082E580937C0481E08093C2
:104F90007D04089583E580937C0410927D0481E074
:104FA00008950F931F93CF93DF93EB010E94CB38AB
:104FB0008B018CDF8F3F49F00E94CB38601B710B57
:104FC0006C177D07B0F380E001C081E0DF91CF91E5
:104FD0001F910F910895CF92DF92FF920F931F932D
:104FE000CF93DF9300D01F92CDB7DEB76C01F62EC2
:104FF00029833A834B835C8391DFC60179DF6CE2BE
:1050000071E0C601CEDF8F2D80646ED808E110E01C
:105010005C814B813A812981DA01C901002E04C0EB
:10502000B695A795979587950A94D2F729833A83E1
:105030004B835C8359D80850110929813A814B81EF
:105040005C81083F8FEF180739F7FF2029F0E8E06F
:10505000FE1621F08FEF03C085E901C087E844D830
:1050600010E034DFF601828787FF04C01F3F11F094
:105070001F5FF7CF0F900F900F900F90DF91CF91A0
:105080001F910F91FF90DF90CF900895BF92CF9224
:10509000DF92EF92FF920F931F93CF93DF93EC0178
:1050A000B62E1B8619861E821D824C830E94CB3829
:1050B0008B0161E08C810E94DF3961E08C810E946C
:1050C000183A0E94A40C82E580937C0410927D041F
:1050D00080917C0490917D040E94A1142AE0F22E1C
:1050E0008FEF02D8FA94E1F7809184038111E1DE19
:1050F000CE01FEDE20E030E0A90160E0CE016BDFF2
:10510000F82E8A8781E0F81649F00E94CB38601BA0
:10511000710B613D774070F381E046C02AEA31E0CF
:1051200040E050E068E0CE0156DF82FF02C0FB861F
:105130000CC094E0F92ECADE8A87FA94E1F78A3A25
:1051400011F082E031C082E08B878B85823031F4B0
:10515000C12CD12CE12C80E4F82E03C0C12CD12C21
:10516000760120E030E0A90167E3CE0134DFA7013A
:10517000960169E2CE012FDF8A87882349F00E94D9
:10518000CB38601B710B613D774058F388E00CC051
:105190008B85823001F520E030E0A9016AE3CE0181
:1051A0001ADF882379F086E08D83CE0191DE80E0DE
:1051B000DF91CF911F910F91FF90EF90DF90CF90F3
:1051C000BF90089583DE807C803C11F483E08B8760
:1051D0007DDE7CDE7BDECE017BDE6B2DCE01DF91C2
:1051E000CF911F910F91FF90EF90DF90CF90BF90E4
:1051F000ADCE0F931F93CF93DF93EC010E94CB387A
:105200008B0164DE8A878F3F49F40E94CB38601B94
:10521000710B6D327140A8F38FE003C08E3F31F007
:105220008DE08D83CE0154DE80E001C081E0DF910E
:10523000CF911F910F910895CF92DF92EF92FF923D
:105240000F931F93CF93DF93EC01690101151105B3
:1052500009F45DC0C801820F931F8130924008F0AD
:1052600058C08E81882371F088819981AA81BB8181
:10527000481759076A077B0729F48F819885C81654
:10528000D90600F5488359836A837B838B858330F5
:1052900039F039E0440F551F661F771F3A95D1F753
:1052A0009A01AB0161E1CE0196DE882319F083E01B
:1052B0008D832FC0CE019DDF882359F118861F8270
:1052C00081E08E838F8198858C159D0538F4FEDDF5
:1052D0008F819885019698878F83F4CF6701E00EC0
:1052E000F11ECE14DF0429F0F1DDF60181936F0188
:1052F000F8CF8F819885800F911F98878F8329859C
:10530000222319F08115924010F0CE0107DE81E0D2
:1053100003C0CE01DDDD80E0DF91CF911F910F91C1
:10532000FF90EF90DF90CF900895EF92FF920F9350
:105330001F93790100E012E020E030E07DDF1F9153
:105340000F91FF90EF900895CF92DF92EF92FF922E
:105350000F931F93CF93DF931F921F92CDB7DEB7AA
:105360008C01862F49835A830E9474204981C42E60
:105370005A81D52EE12CF12CF60181916F010E940A
:105380007420FFEFEF1AFF0AE11482E0F806A1F79C
:105390008FEF0E9474208FEF0E94742097DDF80138
:1053A00082878F71853031F081E18583C80190DD7E
:1053B00080E001C081E00F900F90DF91CF911F91AD
:1053C0000F91FF90EF90DF90CF9008950F931F9370
:1053D000CF93DF93EC0189014115510561057105FA
:1053E00011F482E12DC08B85833039F089E0440FC0
:1053F000551F661F771F8A95D1F79A01AB0168E1A7
:10540000CE01E9DD882311F084E01AC0A8016EEF17
:10541000CE019ADF8823A9F068E572E0CE01C1DDF4
:10542000811102C085E10CC020E030E0A9016DE0EF
:10543000CE01D1DD811103C049DD882331F084E143
:105440008D83CE0145DD80E003C0CE0141DD81E0EA
:10545000DF91CF911F910F91089580E580937C0497
:1054600010927D040895CF93DF93EC019C012A5F95
:105470003F4F41E050E060E070E08B8D9C8D0E94DA
:10548000BD348823A1F04F89588D698D7A8D452BC5
:10549000462B472B71F44E815F81688579854F8B50
:1054A000588F698F7A8F8C8180688C8302C080E0EE
:1054B00001C081E0DF91CF910895CF92DF92EF920A
:1054C000FF921F93CF93DF93EC01CDDF811102C0D8
:1054D00080E04BC0EB8DFC8DCE80DF80E884F984CA
:1054E00082E0C81AD108E108F108058404C0CC0C98
:1054F000DD1CEE1CFF1C0A94D2F746855785608997
:105500007189C40ED51EE61EF71E148181E0C81AEB
:10551000D108E108F108112361F0C701B601610F5C
:10552000711D811D911D0E940B33882389F211503A
:10553000F2CFEB8DFC8DC12C82E0D82EE12CF12C2A
:10554000058404C0CC0CDD1CEE1CFF1C0A94D2F7B1
:105550004B895C896D897E894C0D5D1D6E1D7F1D9B
:105560004B8B5C8B6D8B7E8B81E0DF91CF911F919C
:10557000FF90EF90DF90CF900895CF93DF93EC01F1
:10558000462F6E857F85888999890E94D13288232C
:1055900041F08A8920E2829FC001112489579B4FE4
:1055A00002C080E090E0DF91CF910895282FFB01A9
:1055B0008BE030E231938150E9F7A22FB92F20E040
:1055C00037E09D91992319F19E3219F0EFECF4E048
:1055D00008C03A3011F128E03AE0F3CF319649178C
:1055E000E1F044914111FACF3217B8F04FED490F75
:1055F0004E3598F441E0420FFB01E20FF11D2FE917
:10560000290F2A3108F490529083242FDACF81E0B9
:10561000FB019081903209F480E008950F931F936D
:10562000CF93DF93EC018B018D81882311F080E013
:1056300040C0FB0187898031B1F482E08D831F8AED
:10564000188E198E1A8E408D518D60E070E095E0B5
:10565000440F551F661F771F9A95D1F74B8B5C8BB4
:105660006D8B7E8B15C0803211F783E08D83FB013B
:10567000428D538D648D758D4F8B588F698F7A8FC6
:105680009E012D5E3F4FC8010E94B333882379F2FB
:105690001C8F0B8F81E08C831E821F8218861986D7
:1056A0001A861B861C861D861E861F86188A198AE6
:1056B0001A8ADF91CF911F910F9108952F923F92F7
:1056C0004F925F926F927F928F929F92AF92BF9212
:1056D000CF92DF92EF92FF920F931F93CF93DF93BE
:1056E000EC016B015A018D81811103C08FEF9FEF97
:1056F000D7C08C8180FFFACF4B895C896D897E8908
:105700008A859B85AC85BD852501612C712C8A011C
:105710009B01081B190B2A0B3B0B041515052605CD
:10572000370518F45A01A81AB90A25011E0126E006
:10573000220E311C4114510409F47AC04A855B855C
:105740006C857D854A0181E09822ED818A019B016B
:10575000F9E03695279517950795FA95D1F78B8D32
:105760009C8DE23051F4FC01628D738D848D958D9A
:10577000600F711F821F931F3DC0FC0174807A94DB
:10578000702281149104C1F4711016C0452B462B70
:10579000472B49F48F89988DA98DBA8D8E839F836D
:1057A000A887B98709C04E815F8168857985910195
:1057B00057D7882309F49ACFEB8DFC8D6E817F81BA
:1057C000888599856250710981099109058404C011
:1057D000660F771F881F991F0A94D2F706851785D1
:1057E00020893189600F711F821F931F670D711D02
:1057F000811D911D20E032E028193909320124155C
:10580000350508F439012C8126FD04C06114F2E04D
:105810007F0699F500910C0210910D0220910E0265
:1058200030910F02601771078207930719F425C0A2
:10583000C50136C0760183019401AB01BC018091A2
:10584000850490918604F8DC882309F44FCFC60CB8
:10585000D71C04C0E81BF90BCE0EDF1E8A859B8582
:10586000AC85BD85860D971DA11DB11D8A879B87BF
:10587000AC87BD87461857085DCF40E092D6882395
:1058800009F434CFC40189579B4FD6019C01260DE2
:10589000371DFC01E217F307E9F241914D93FACF6E
:1058A000DF91CF911F910F91FF90EF90DF90CF90FC
:1058B000BF90AF909F908F907F906F905F904F9030
:1058C0003F902F900895FF920F931F93CF93DF93F4
:1058D0001F92CDB7DEB78C01FC018581823018F4B0
:1058E00080E090E033C0F80142855385648575857A
:1058F000A5E07695679557954795AA95D1F7F42F2A
:10590000FF70FF2E41E050E0BE016F5F7F4FC80186
:10591000D5DE019719F4298130E002C02FEF3FEF67
:105920002F3F3F4FE9F2F801428553856485758525
:10593000415E5F4F6F4F7F4F428753876487758704
:10594000F0E2FF9EC001112489579B4F0F90DF9119
:10595000CF911F910F91FF9008954F925F926F9298
:105960007F92AF92BF92CF92DF92EF92FF920F930E
:105970001F93CF93DF93EC016A017B012D812223DA
:1059800009F456C08B899C89AD89BE898417950717
:10599000A607B70708F44CC04DC08A859B85AC8527
:1059A000BD85EB8DFC8DE585F0E03996AC01BD0140
:1059B00041505109610971090E2E04C07695679511
:1059C000579547950A94D2F797018601015011091E
:1059D0002109310904C03695279517950795EA9551
:1059E000D2F70417150726073707A8F58F89988D72
:1059F000A98DBA8D8E839F83A887B9872801390125
:105A00005E0186E0A80EB11C4114510461047104CA
:105A100059F14E815F816885798595018B8D9C8DCB
:105A20001FD691E0491A5108610871088111ECCF25
:105A300080E01FC02230C1F0C114D104E104F104A0
:105A400009F0ABCF1E821F82188619861A861B8624
:105A50001C861D860DC0892B8A2B8B2B39F2041BCB
:105A6000150B260B370BCACFCA86DB86EC86FD8664
:105A700081E0DF91CF911F910F91FF90EF90DF9028
:105A8000CF90BF90AF907F906F905F904F900895B0
:105A90000F931F93CF93DF93EC018D818823B9F18E
:105AA0008C8187FF2FC061E0CE0167DD8C010097FC
:105AB00071F18D81823048F44B895C896D897E89D2
:105AC000F801448F558F668F778F4F89588D698D78
:105AD0007A8DF801538F428F758B648BE0917E0431
